{
  "contractName": "Voting",
  "abi": [
    {
      "anonymous": false,
      "inputs": [
        {
          "indexed": false,
          "internalType": "string",
          "name": "election",
          "type": "string"
        },
        {
          "indexed": false,
          "internalType": "string",
          "name": "winnerCandiate",
          "type": "string"
        },
        {
          "indexed": false,
          "internalType": "uint256",
          "name": "votecount_",
          "type": "uint256"
        }
      ],
      "name": "winner",
      "type": "event"
    },
    {
      "inputs": [
        {
          "internalType": "uint256",
          "name": "",
          "type": "uint256"
        }
      ],
      "name": "Candidates",
      "outputs": [
        {
          "internalType": "string",
          "name": "name",
          "type": "string"
        },
        {
          "internalType": "uint8",
          "name": "voterCount",
          "type": "uint8"
        }
      ],
      "stateMutability": "view",
      "type": "function",
      "constant": true
    },
    {
      "inputs": [
        {
          "internalType": "address",
          "name": "",
          "type": "address"
        }
      ],
      "name": "Voters",
      "outputs": [
        {
          "internalType": "bool",
          "name": "authorized",
          "type": "bool"
        },
        {
          "internalType": "bool",
          "name": "voted",
          "type": "bool"
        },
        {
          "internalType": "uint8",
          "name": "voterIndex",
          "type": "uint8"
        }
      ],
      "stateMutability": "view",
      "type": "function",
      "constant": true
    },
    {
      "inputs": [
        {
          "internalType": "string",
          "name": "_name",
          "type": "string"
        },
        {
          "internalType": "string[]",
          "name": "candidateNames",
          "type": "string[]"
        },
        {
          "internalType": "uint256",
          "name": "_deadline",
          "type": "uint256"
        }
      ],
      "name": "addCandiadtes",
      "outputs": [],
      "stateMutability": "nonpayable",
      "type": "function"
    },
    {
      "inputs": [
        {
          "internalType": "address",
          "name": "voter",
          "type": "address"
        }
      ],
      "name": "Authorize",
      "outputs": [],
      "stateMutability": "nonpayable",
      "type": "function"
    },
    {
      "inputs": [
        {
          "internalType": "uint256",
          "name": "_id",
          "type": "uint256"
        }
      ],
      "name": "VOTE",
      "outputs": [],
      "stateMutability": "nonpayable",
      "type": "function"
    },
    {
      "inputs": [],
      "name": "end",
      "outputs": [],
      "stateMutability": "nonpayable",
      "type": "function"
    },
    {
      "inputs": [],
      "name": "winningCandidate",
      "outputs": [
        {
          "internalType": "uint256",
          "name": "winnerCandiate",
          "type": "uint256"
        }
      ],
      "stateMutability": "view",
      "type": "function",
      "constant": true
    }
  ],
  "bytecode": "0x608060405234801561001057600080fd5b5061136c806100206000396000f3fe608060405234801561001057600080fd5b506004361061007d5760003560e01c8063750cf1fb1161005b578063750cf1fb146100eb578063d28178d714610107578063efbe1c1c14610125578063fdedaa8a1461012f5761007d565b8063290e9212146100825780635a6ae247146100b35780636d81a01b146100cf575b600080fd5b61009c600480360381019061009791906108cd565b610161565b6040516100aa9291906109a6565b60405180910390f35b6100cd60048036038101906100c89190610bf1565b61022a565b005b6100e960048036038101906100e49190610cda565b610348565b005b610105600480360381019061010091906108cd565b6103fe565b005b61010f6105e3565b60405161011c9190610d16565b60405180910390f35b61012d6106e0565b005b61014960048036038101906101449190610cda565b610832565b60405161015893929190610d4c565b60405180910390f35b6003818154811061017157600080fd5b906000526020600020906002020160009150905080600001805461019490610db2565b80601f01602080910402602001604051908101604052809291908181526020018280546101c090610db2565b801561020d5780601f106101e25761010080835404028352916020019161020d565b820191906000526020600020905b8154815290600101906020018083116101f057829003601f168201915b5050505050908060010160009054906101000a900460ff16905082565b336000806101000a81548173ffffffffffffffffffffffffffffffffffffffff021916908373ffffffffffffffffffffffffffffffffffffffff16021790555082600190816102799190610f8f565b5080426102869190611090565b60028190555060005b825181101561034257600360405180604001604052808584815181106102b8576102b76110c4565b5b60200260200101518152602001600060ff168152509080600181540180825580915050600190039060005260206000209060020201600090919091909150600082015181600001908161030b9190610f8f565b5060208201518160010160006101000a81548160ff021916908360ff1602179055505050808061033a906110f3565b91505061028f565b50505050565b60008054906101000a900473ffffffffffffffffffffffffffffffffffffffff1673ffffffffffffffffffffffffffffffffffffffff163373ffffffffffffffffffffffffffffffffffffffff16146103a057600080fd5b6001600460008373ffffffffffffffffffffffffffffffffffffffff1673ffffffffffffffffffffffffffffffffffffffff16815260200190815260200160002060000160006101000a81548160ff02191690831515021790555050565b60011515600460003373ffffffffffffffffffffffffffffffffffffffff1673ffffffffffffffffffffffffffffffffffffffff16815260200190815260200160002060000160009054906101000a900460ff16151514610494576040517f08c379a000000000000000000000000000000000000000000000000000000000815260040161048b90611187565b60405180910390fd5b60001515600460003373ffffffffffffffffffffffffffffffffffffffff1673ffffffffffffffffffffffffffffffffffffffff16815260200190815260200160002060000160019054906101000a900460ff1615151461052a576040517f08c379a0000000000000000000000000000000000000000000000000000000008152600401610521906111f3565b60405180910390fd5b6001600460003373ffffffffffffffffffffffffffffffffffffffff1673ffffffffffffffffffffffffffffffffffffffff16815260200190815260200160002060000160016101000a81548160ff02191690831515021790555060038181548110610599576105986110c4565b5b9060005260206000209060020201600101600081819054906101000a900460ff16809291906105c790611213565b91906101000a81548160ff021916908360ff1602179055505050565b60008060009054906101000a900473ffffffffffffffffffffffffffffffffffffffff1673ffffffffffffffffffffffffffffffffffffffff163373ffffffffffffffffffffffffffffffffffffffff161461063e57600080fd5b6000805b6003805490508110156106db578160038281548110610664576106636110c4565b5b906000526020600020906002020160010160009054906101000a900460ff1660ff1611156106c857600381815481106106a05761069f6110c4565b5b906000526020600020906002020160010160009054906101000a900460ff1660ff1691508092505b80806106d3906110f3565b915050610642565b505090565b60008054906101000a900473ffffffffffffffffffffffffffffffffffffffff1673ffffffffffffffffffffffffffffffffffffffff163373ffffffffffffffffffffffffffffffffffffffff161461073857600080fd5b60008054906101000a900473ffffffffffffffffffffffffffffffffffffffff1673ffffffffffffffffffffffffffffffffffffffff163373ffffffffffffffffffffffffffffffffffffffff161461079057600080fd5b7f39fccdc26d89ae039fea5ba420badfb6da794af9502a63338c591560e56b1e03600160036107bd6105e3565b815481106107ce576107cd6110c4565b5b906000526020600020906002020160000160036107e96105e3565b815481106107fa576107f96110c4565b5b906000526020600020906002020160010160009054906101000a900460ff16604051610828939291906112f1565b60405180910390a1565b60046020528060005260406000206000915090508060000160009054906101000a900460ff16908060000160019054906101000a900460ff16908060000160029054906101000a900460ff16905083565b6000604051905090565b600080fd5b600080fd5b6000819050919050565b6108aa81610897565b81146108b557600080fd5b50565b6000813590506108c7816108a1565b92915050565b6000602082840312156108e3576108e261088d565b5b60006108f1848285016108b8565b91505092915050565b600081519050919050565b600082825260208201905092915050565b60005b83811015610934578082015181840152602081019050610919565b60008484015250505050565b6000601f19601f8301169050919050565b600061095c826108fa565b6109668185610905565b9350610976818560208601610916565b61097f81610940565b840191505092915050565b600060ff82169050919050565b6109a08161098a565b82525050565b600060408201905081810360008301526109c08185610951565b90506109cf6020830184610997565b9392505050565b600080fd5b600080fd5b7f4e487b7100000000000000000000000000000000000000000000000000000000600052604160045260246000fd5b610a1882610940565b810181811067ffffffffffffffff82111715610a3757610a366109e0565b5b80604052505050565b6000610a4a610883565b9050610a568282610a0f565b919050565b600067ffffffffffffffff821115610a7657610a756109e0565b5b610a7f82610940565b9050602081019050919050565b82818337600083830152505050565b6000610aae610aa984610a5b565b610a40565b905082815260208101848484011115610aca57610ac96109db565b5b610ad5848285610a8c565b509392505050565b600082601f830112610af257610af16109d6565b5b8135610b02848260208601610a9b565b91505092915050565b600067ffffffffffffffff821115610b2657610b256109e0565b5b602082029050602081019050919050565b600080fd5b6000610b4f610b4a84610b0b565b610a40565b90508083825260208201905060208402830185811115610b7257610b71610b37565b5b835b81811015610bb957803567ffffffffffffffff811115610b9757610b966109d6565b5b808601610ba48982610add565b85526020850194505050602081019050610b74565b5050509392505050565b600082601f830112610bd857610bd76109d6565b5b8135610be8848260208601610b3c565b91505092915050565b600080600060608486031215610c0a57610c0961088d565b5b600084013567ffffffffffffffff811115610c2857610c27610892565b5b610c3486828701610add565b935050602084013567ffffffffffffffff811115610c5557610c54610892565b5b610c6186828701610bc3565b9250506040610c72868287016108b8565b9150509250925092565b600073ffffffffffffffffffffffffffffffffffffffff82169050919050565b6000610ca782610c7c565b9050919050565b610cb781610c9c565b8114610cc257600080fd5b50565b600081359050610cd481610cae565b92915050565b600060208284031215610cf057610cef61088d565b5b6000610cfe84828501610cc5565b91505092915050565b610d1081610897565b82525050565b6000602082019050610d2b6000830184610d07565b92915050565b60008115159050919050565b610d4681610d31565b82525050565b6000606082019050610d616000830186610d3d565b610d6e6020830185610d3d565b610d7b6040830184610997565b949350505050565b7f4e487b7100000000000000000000000000000000000000000000000000000000600052602260045260246000fd5b60006002820490506001821680610dca57607f821691505b602082108103610ddd57610ddc610d83565b5b50919050565b60008190508160005260206000209050919050565b60006020601f8301049050919050565b600082821b905092915050565b600060088302610e457fffffffffffffffffffffffffffffffffffffffffffffffffffffffffffffffff82610e08565b610e4f8683610e08565b95508019841693508086168417925050509392505050565b6000819050919050565b6000610e8c610e87610e8284610897565b610e67565b610897565b9050919050565b6000819050919050565b610ea683610e71565b610eba610eb282610e93565b848454610e15565b825550505050565b600090565b610ecf610ec2565b610eda818484610e9d565b505050565b5b81811015610efe57610ef3600082610ec7565b600181019050610ee0565b5050565b601f821115610f4357610f1481610de3565b610f1d84610df8565b81016020851015610f2c578190505b610f40610f3885610df8565b830182610edf565b50505b505050565b600082821c905092915050565b6000610f6660001984600802610f48565b1980831691505092915050565b6000610f7f8383610f55565b9150826002028217905092915050565b610f98826108fa565b67ffffffffffffffff811115610fb157610fb06109e0565b5b610fbb8254610db2565b610fc6828285610f02565b600060209050601f831160018114610ff95760008415610fe7578287015190505b610ff18582610f73565b865550611059565b601f19841661100786610de3565b60005b8281101561102f5784890151825560018201915060208501945060208101905061100a565b8683101561104c5784890151611048601f891682610f55565b8355505b6001600288020188555050505b505050505050565b7f4e487b7100000000000000000000000000000000000000000000000000000000600052601160045260246000fd5b600061109b82610897565b91506110a683610897565b92508282019050808211156110be576110bd611061565b5b92915050565b7f4e487b7100000000000000000000000000000000000000000000000000000000600052603260045260246000fd5b60006110fe82610897565b91507fffffffffffffffffffffffffffffffffffffffffffffffffffffffffffffffff82036111305761112f611061565b5b600182019050919050565b7f796f7520617265206e6f7420656c69676961626c6520666f7220766f74696e67600082015250565b6000611171602083610905565b915061117c8261113b565b602082019050919050565b600060208201905081810360008301526111a081611164565b9050919050565b7f796f75206861766520616c726561647920766f74656400000000000000000000600082015250565b60006111dd601683610905565b91506111e8826111a7565b602082019050919050565b6000602082019050818103600083015261120c816111d0565b9050919050565b600061121e8261098a565b915060ff820361123157611230611061565b5b600182019050919050565b6000815461124981610db2565b6112538186610905565b9450600182166000811461126e5760018114611284576112b7565b60ff1983168652811515602002860193506112b7565b61128d85610de3565b60005b838110156112af57815481890152600182019150602081019050611290565b808801955050505b50505092915050565b60006112db6112d66112d18461098a565b610e67565b610897565b9050919050565b6112eb816112c0565b82525050565b6000606082019050818103600083015261130b818661123c565b9050818103602083015261131f818561123c565b905061132e60408301846112e2565b94935050505056fea26469706673582212205b04a69a576d8119c4f3c4deaf544f1414c538976bde32b6ac7d1f083f8a9d1f64736f6c63430008110033",
  "immutableReferences": {},
  "source": "// SPDX-License-Identifier: GPL-3.0\r\n\r\npragma solidity >=0.4.22 <0.9.0;\r\n\r\ncontract Voting\r\n{\r\n    address owner;\r\n    string electionName;\r\n    uint deadline;\r\n    event winner(string election ,string winnerCandiate,uint votecount_);\r\n     modifier onlyOwner\r\n     {\r\n         require(msg.sender==owner);\r\n         _;\r\n     }\r\n     modifier Deadline{\r\n         require(block.timestamp < deadline,\"the vote time has been over now!\");\r\n         _;\r\n     }\r\n     struct Candidate\r\n     {\r\n         string name;\r\n         uint8 voterCount;\r\n     }\r\n     struct Voter{\r\n         bool authorized;\r\n         bool voted;\r\n         uint8 voterIndex;\r\n     }\r\n     Candidate[] public Candidates;\r\n     mapping (address=>Voter) public Voters;\r\n     function addCandiadtes(string memory _name,string[] memory candidateNames,uint _deadline) public\r\n     {\r\n         owner=msg.sender;\r\n         electionName = _name;\r\n         deadline = block.timestamp+_deadline;\r\n         for(uint i=0;i<candidateNames.length;i++)\r\n         {\r\n             Candidates.push(Candidate({\r\n                 name:candidateNames[i],\r\n                 voterCount:0\r\n             }));\r\n         }\r\n     } \r\n\r\n     function Authorize(address voter) external onlyOwner \r\n     {\r\n         Voters[voter].authorized=true;\r\n     }\r\n\r\n     function VOTE(uint _id) external \r\n     {\r\n         require(Voters[msg.sender].authorized == true,\"you are not eligiable for voting\");\r\n        require(Voters[msg.sender].voted == false,\"you have already voted\");\r\n         Voters[msg.sender].voted=true;\r\n         Candidates[_id].voterCount++;\r\n     }\r\n\r\n     function end() onlyOwner external onlyOwner\r\n     {\r\n         //require(block.timestamp>deadline);\r\n         emit winner(electionName,Candidates[winningCandidate()].name,Candidates[winningCandidate()].voterCount);\r\n     }\r\n\r\n     function winningCandidate() public view onlyOwner returns (uint winnerCandiate)\r\n     {\r\n         uint winningVoteCount=0;\r\n         for(uint i=0;i<Candidates.length;i++)\r\n         {\r\n             if(Candidates[i].voterCount>winningVoteCount)\r\n             {\r\n                 winningVoteCount = Candidates[i].voterCount;\r\n                 winnerCandiate=i;\r\n             }\r\n         }\r\n     }\r\n}\r\n\r\n//0x41544b9d695dcB3C7600ac4C6B5E39d1498C7A26",
  "sourcePath": "C:\\Users\\Lenovo\\Desktop\\Voting\\backend\\contracts\\Voting.sol",
  "compiler": {
    "name": "solc",
    "version": "0.8.17+commit.8df45f5f.Emscripten.clang"
  },
  "schemaVersion": "3.4.10",
  "updatedAt": "2022-11-19T06:05:29.499Z",
  "networkType": "ethereum",
  "devdoc": {
    "kind": "dev",
    "methods": {},
    "version": 1
  },
  "userdoc": {
    "kind": "user",
    "methods": {},
    "version": 1
  }
}